:100000000C9462000C948A000C948A000C948A0070
:100010000C948A000C948A000C948A000C948A0038
:100020000C948A000C948A000C948A000C948A0028
:100030000C948A000C948A000C948A000C948A0018
:100040000C9410020C948A000C9480020C945A02B6
:100050000C948A000C948A000C948A000C948A00F8
:100060000C948A000C948A000000000024002700F1
:100070002A0000000000250028002B0000000000DE
:1000800023002600290004040404040404040202DA
:100090000202020203030303030301020408102007
:1000A0004080010204081020010204081020000012
:1000B0000008000201000003040700000000000027
:1000C0000000D60311241FBECFEFD8E0DEBFCDBFA6
:1000D00011E0A0E0B1E0E6E1F8E002C005900D9289
:1000E000A231B107D9F721E0A2E1B1E001C01D9230
:1000F000AC3BB207E1F710E0C2E6D0E004C02197C4
:10010000FE010E940304C136D107C9F70E94B20262
:100110000C9409040C940000833081F028F48130A1
:1001200099F08230A9F008958730A9F08830C9F09D
:100130008430B1F4809180008F7D03C08091800075
:100140008F7780938000089584B58F7784BD08955C
:1001500084B58F7DFBCF8091B0008F778093B00006
:1001600008958091B0008F7DF9CFCF93DF93282F32
:1001700030E0F901E255FF4F8491F901E656FF4F57
:10018000D491F901EA57FF4FC491CC23A1F081111A
:100190000E948C00EC2FF0E0EE0FFF1FE458FF4FA1
:1001A000A591B491EC91ED2381E090E009F480E019
:1001B000DF91CF91089580E090E0FACF3FB7F894B7
:1001C0008091B8019091B901A091BA01B091BB01A1
:1001D00026B5A89B05C02F3F19F00196A11DB11DA2
:1001E0003FBFBA2FA92F982F8827BC01CD01620FDE
:1001F000711D811D911D42E0660F771F881F991F99
:100200004A95D1F70895AF92BF92CF92DF92EF92C5
:10021000FF920F931F93CF93DF936C017B018B01B0
:10022000040F151FEB015E01AE18BF08C017D10700
:1002300059F06991D601ED91FC910190F081E02D8A
:10024000C6010995892B79F7C501DF91CF911F91DF
:100250000F91FF90EF90DF90CF90BF90AF900895F7
:10026000FC01538D448D252F30E0842F90E0821BBC
:10027000930B541710F0CF96089501970895FC0141
:10028000918D828D981761F0A28DAE0FBF2FB11D99
:100290005D968C91928D9F5F9F73928F90E00895F1
:1002A0008FEF9FEF0895FC01918D828D981731F0AB
:1002B000828DE80FF11D858D90E008958FEF9FEFFF
:1002C0000895FC01918D228D892F90E0805C9F4FD5
:1002D000821B91098F739927089582E191E00E9412
:1002E000610121E0892B09F420E0822F089580E04C
:1002F00090E0892B29F00E946D0181110C9400007F
:100300000895FC01A48DA80FB92FB11DA35ABF4FAA
:100310002C91848D90E001968F739927848FA68904
:10032000B7892C93A089B1898C91837080648C9358
:10033000938D848D981306C00288F389E02D808107
:100340008F7D80830895EF92FF920F931F93CF9339
:10035000DF93EC0181E0888F9B8D8C8D98131AC000
:10036000E889F989808185FF15C09FB7F894EE89E7
:10037000FF896083E889F989808183708064808344
:100380009FBF81E090E0DF91CF911F910F91FF908F
:10039000EF900895F62E0B8D10E00F5F1F4F0F7337
:1003A0001127E02E8C8D8E110CC00FB607FCFACFF2
:1003B000E889F989808185FFF5CFCE010E9481010E
:1003C000F1CFEB8DEC0FFD2FF11DE35AFF4FF082C3
:1003D0009FB7F8940B8FEA89FB8980818062CFCF29
:1003E000CF93DF93EC01888D8823B9F0AA89BB896C
:1003F000E889F9898C9185FD03C0808186FD0DC057
:100400000FB607FCF7CF8C9185FFF2CF808185FF77
:10041000EDCFCE010E948101E9CFDF91CF91089508
:100420001F920F920FB60F9211242F933F938F9329
:100430009F93AF93BF938091B4019091B501A09128
:10044000B601B091B7013091B30123E0230F2D37EE
:1004500058F50196A11DB11D2093B3018093B401FD
:100460009093B501A093B601B093B7018091B80104
:100470009091B901A091BA01B091BB010196A11D63
:10048000B11D8093B8019093B901A093BA01B093C4
:10049000BB01BF91AF919F918F913F912F910F9091
:1004A0000FBE0F901F90189526E8230F0296A11DEE
:1004B000B11DD2CF1F920F920FB60F9211242F931E
:1004C0003F934F935F936F937F938F939F93AF93DC
:1004D000BF93EF93FF9382E191E00E948101FF912E
:1004E000EF91BF91AF919F918F917F916F915F91AC
:1004F0004F913F912F910F900FBE0F901F90189525
:100500001F920F920FB60F9211242F938F939F93E8
:10051000EF93FF93E0912201F09123018081E0911C
:100520002801F091290182FD1BC0908180912B014F
:100530008F5F8F7320912C01821741F0E0912B0186
:10054000F0E0EE5EFE4F958F80932B01FF91EF91CF
:100550009F918F912F910F900FBE0F901F90189524
:100560008081F4CF789484B5826084BD84B5816045
:1005700084BD85B5826085BD85B5816085BD80916E
:100580006E00816080936E001092810080918100E6
:1005900082608093810080918100816080938100DE
:1005A000809180008160809380008091B1008460A0
:1005B0008093B1008091B00081608093B000809101
:1005C0007A00846080937A0080917A0082608093C0
:1005D0007A0080917A00816080937A0080917A001D
:1005E000806880937A001092C100E0912201F0911E
:1005F000230182E08083E0911E01F0911F011082AF
:10060000E0912001F09121018FEC808310922A016A
:10061000E0912601F091270186E08083E09124019A
:10062000F0912501808180618083E0912401F09127
:100630002501808188608083E0912401F09125016B
:10064000808180688083E0912401F0912501808180
:100650008F7D8083EDE9F0E02491E9E8F0E084917A
:100660008823C1F090E0880F991FFC01E859FF4FE3
:10067000C591D491FC01EE58FF4FA591B4919FB75D
:10068000F8948881E22FE0958E2388838C91E8236B
:10069000EC939FBFC1EAD0E0FE0124910DE810E089
:1006A000F8018491882399F090E0880F991FFC014C
:1006B000E859FF4FA591B491FC01EE58FF4F859189
:1006C00094918FB7F8949C91292B2C938FBF25EB95
:1006D000822E20E0922E30E0A32E30E0B32EE09068
:1006E000B101F090B201F092B001E092AF0183E06D
:1006F0000E94B5009093B2018093B101019709F077
:1007000047C0EF2809F044C087E00E94B5007C0193
:10071000F4018491FE01D490F801C490CC20A1F0A2
:1007200081110E948C00EC2DF0E0EE0FFF1FEE58BF
:10073000FF4FA591B4918FB7F8949C91EF28A1F148
:10074000D094D922DC928FBF0E94DE002B013C01A5
:1007500088ECC82ED12CE12CF12C0E94DE0064190B
:10076000750986099709683E734081059105A8F3CC
:10077000F1E0CF1AD108E108F10828EE420E23E09B
:10078000521E611C711CC114D104E104F10429F74B
:10079000A114B10409F4A3CF0E946D01882309F4C8
:1007A0009ECF0E9400009BCFD92ACCCFE2E1F1E09E
:1007B0001382128288EE93E0A0E0B0E084839583F8
:1007C000A683B78384E091E09183808385EC90E0F9
:1007D0009587848784EC90E09787868780EC90E00B
:1007E000918B808B81EC90E0938B828B82EC90E0FC
:1007F000958B848B86EC90E0978B868B118E128E76
:10080000138E148E0895EE0FFF1F0590F491E02DC6
:060810000994F894FFCFEB
:1008160000000000A30103013001F00161013F0166
:0208260053017C
:00000001FF
